:100000000C942A000C9434000C9434000C943400AA
:100010000C9434000C9434000C9434000C94340090
:100020000C9434000C9434000C9434000C94340080
:100030000C9434000C9434000C9434000C94340070
:100040000C9434000C9434000C9434000C94340060
:100050000C94340011241FBECFE5D8E0DEBFCDBF25
:100060000E9436000C9449000C94000081E088BB8B
:100070008FEF84BB81BB86E083BF12BE82B785BB96
:1000800008B600FEFBCF81E088BF82B38F5F82BBE2
:06009000F5CFF894FFCF4C
:00000001FF
